:100000000C9473180C949D180C949D180C949D18C6
:100010000C949D180C949D180C949D180C949D188C
:100020000C949D180C949D180C947C6B0C94E06BB4
:100030000C94B3190C949D180C949D180C949D1855
:100040000C949D180C949D180C949D180C949D185C
:100050000C949D180C949D180C949D180C94336A64
:100060000C949D180C94E5640C9410650C944165F7
:100070000C949D180C949D180C949D180C949D182C
:100080000C949D180C949D180C949D180C949D181C
:100090000C949D180C949D18084AD73B3BCE016EDA
:1000A00084BCBFFDC12F3D6C74319ABD56833DDACF
:1000B0003D00C77F11BED9E4BB4C3E916BAAAABEDE
:1000C000000000803F05A84CCDB2D44EB93836A907
:1000D000020C50B9918688083CA6AAAA2ABE000044
:1000E00000803F00011AFF0104F000000000000042
:1000F0000000000000000000000000000000000000
:1001000000000000000000000000000000000000EF
:1001100000000000000000000000000000000000DF
:100120000B0000000000000000000000000000F4D0
:1001300001000B00000000000000000000000000B3
:1001400000C800000219FF011EF0000000000000BE
:10015000000000000000000000000000000000009F
:10016000000000000000000000000000000000008F
:10017000000000000000000000000000000000007F
:100180000B0000000000000000000000000000F470
:1001900001000B0000000000000000000000000053
:1001A00000C800000318FF0114F000000000000068
:1001B000000000000000000000000000000000003F
:1001C000000000000000000000000000000000002F
:1001D000000000000000000000000000000000001F
:1001E0000B0000000000000000000000000000F410
:1001F00001000B00000000000000000000000000F3
:1002000000C800000417FF011DF0000000000000FE
:1002100000000000000000000000000000000000DE
:1002200000000000000000000000000000000000CE
:1002300000000000000000000000000000000000BE
:100240000B0000000000000000000000000000F4AF
:1002500001000B0000000000000000000000000092
:1002600000C800000516FF010000000000000000AB
:1002700004E000000000000000000000000000009A
:10028000000000000000000000000000000000006E
:10029000000000000000000000000000000000005E
:1002A0000B0000000000000000000000000000F44F
:1002B00001000B0000000000000000000000000032
:1002C00000C800000615FF011FF00000000000003C
:1002D000000000000000000000000000000000001E
:1002E000000000000000000000000000000000000E
:1002F00000000000000000000000000000000000FE
:100300000B0000000000000000000000000000F4EE
:1003100001000B00000000000000000000000000D1
:1003200000C800000714FF010AF0000000000000F0
:1003300000000000000000000000000000000000BD
:1003400000000000000000000000000000000000AD
:10035000000000000000000000000000000000009D
:100360000B0000000000000000000000000000F48E
:1003700001000B0000000000000000000000000071
:1003800000C800000813FF011BF00000000000007F
:10039000000000000000000000000000000000005D
:1003A000000000000000000000000000000000004D
:1003B000000000000000000000000000000000003D
:1003C0000B0000000000000000000000000000F42E
:1003D00001000B0000000000000000000000000011
:1003E00000C80000091BFF01000000000000000021
:1003F00002E000000000000000000000000000001B
:1004000000000000000000000000000000000000EC
:1004100000000000000000000000000000000000DC
:100420000B0000000000000000000000000000F4CD
:1004300001000B00000000000000000000000000B0
:1004400000C800000A00FF0120F0000000000000CA
:10045000000000000000000000000000000000009C
:10046000000000000000000000000000000000008C
:10047000000000000000000000000000000000007C
:100480000B0000000000000000000000000000F46D
:1004900001000B0000000000000000000000000050
:1004A00000C800000B01FF0115F000000000000073
:1004B000000000000000000000000000000000003C
:1004C000000000000000000000000000000000002C
:1004D000000000000000000000000000000000001C
:1004E0000B0000000000000000000000000000F40D
:1004F00001000B00000000000000000000000000F0
:1005000000C800000C02FF0106F00000000000001F
:1005100000000000000000000000000000000000DB
:1005200000000000000000000000000000000000CB
:1005300000000000000000000000000000000000BB
:100540000B0000000000000000000000000000F4AC
:1005500001000B000000000000000000000000008F
:1005600000C800000D03FF010CF0000000000000B7
:10057000000000000000000000000000000000007B
:10058000000000000000000000000000000000006B
:10059000000000000000000000000000000000005B
:1005A0000B0000000000000000000000000000F44C
:1005B00001000B000000000000000000000000002F
:1005C00000C800000E04FF01000000000000000051
:1005D00001E000000000000000000000000000003A
:1005E000000000000000000000000000000000000B
:1005F00000000000000000000000000000000000FB
:100600000B0000000000000000000000000000F4EB
:1006100001000B00000000000000000000000000CE
:1006200000C800000F05FF0121F0000000000000DD
:1006300000000000000000000000000000000000BA
:1006400000000000000000000000000000000000AA
:10065000000000000000000000000000000000009A
:100660000B0000000000000000000000000000F48B
:1006700001000B000000000000000000000000006E
:1006800000C800001008FF0108F000000000000092
:10069000000000000000000000000000000000005A
:1006A000000000000000000000000000000000004A
:1006B000000000000000000000000000000000003A
:1006C0000B0000000000000000000000000000F42B
:1006D00001000B000000000000000000000000000E
:1006E00000C800001109FF0119F00000000000001F
:1006F00000000000000000000000000000000000FA
:1007000000000000000000000000000000000000E9
:1007100000000000000000000000000000000000D9
:100720000B0000000000000000000000000000F4CA
:1007300001000B00000000000000000000000000AD
:1007400000C80000120AFF0110F0000000000000C5
:100750000000000000000000000000000000000099
:100760000000000000000000000000000000000089
:100770000000000000000000000000000000000079
:100780000B0000000000000000000000000000F46A
:1007900001000B000000000000000000000000004D
:1007A00000C80000130BFF0109F00000000000006A
:1007B0000000000000000000000000000000000039
:1007C0000000000000000000000000000000000029
:1007D0000000000000000000000000000000000019
:1007E0000B0000000000000000000000000000F40A
:1007F00001000B00000000000000000000000000ED
:1008000000C80000140CFF0129F0000000000000E7
:1008100000000000000000000000000000000000D8
:1008200000000000000000000000000000000000C8
:1008300000000000000000000000000000000000B8
:100840000B0000000000000000000000000000F4A9
:1008500001000B000000000000000000000000008C
:1008600000C80000150D0E0200000000000000008E
:100870000000000000000000000000000000000078
:100880000000000000000000000000000000000068
:100890000000000000000000000000000000000058
:1008A0000000000000000000000000000000000048
:1008B0000000000000000000000000000000000038
:1008C000000000001626FF0117F0000000000000E5
:1008D0000000000000000000000000000000000018
:1008E0000000000000000000000000000000000008
:1008F00000000000000000000000000000000000F8
:100900000B0000000000000000000000000000F4E8
:1009100001000B00000000000000000000000000CB
:1009200000C800001712FF012EF0000000000000B8
:1009300000000000000000000000000000000000B7
:1009400000000000000000000000000000000000A7
:100950000000000000000000000000000000000097
:100960000B0000000000000000000000000000F488
:1009700001000B000000000000000000000000006B
:1009800000C8000018272804A6FF0000000003008C
:100990001AF00000000007F00000000016F0000050
:1009A000000004F00000000052F0000000004FF0D2
:1009B0000000000051F00000000050F000000000B6
:1009C0000000000000000000000000000000000027
:1009D0000000000000000000000000000000000017
:1009E000000000001C2AFF0152F00000000000007F
:1009F00000000000000000000000000000000000F7
:100A000000000000000000000000000000000000E6
:100A100000000000000000000000000000000000D6
:100A20000B0000000000000000000000000000F4C7
:100A300001000B00000000000000000000000000AA
:100A400000C800001D2BFF0150F000000000000056
:100A50000000000000000000000000000000000096
:100A60000000000000000000000000000000000086
:100A70000000000000000000000000000000000076
:100A80000B0000000000000000000000000000F467
:100A900001000B000000000000000000000000004A
:100AA00000C800001E2CFF0151F0000000000000F3
:100AB0000000000000000000000000000000000036
:100AC0000000000000000000000000000000000026
:100AD0000000000000000000000000000000000016
:100AE0000B0000000000000000000000000000F407
:100AF00001000B00000000000000000000000000EA
:100B000000C800001F2DFF014FF000000000000092
:100B100000000000000000000000000000000000D5
:100B200000000000000000000000000000000000C5
:100B300000000000000000000000000000000000B5
:100B40000B0000000000000000000000000000F4A6
:100B500001000B0000000000000000000000000089
:100B600000C80000011AFF0501000000000000009D
:100B70000000000000000000000000000000000075
:100B80000000000000000000000000000000000065
:100B90000000000000000000000000000000000055
:100BA0000B0000000000000000000000000000F446
:100BB00001000B0000000000000000000000000029
:100BC00000C800000219FF05060000000000000038
:100BD0000000000000000000000000000000000015
:100BE0000000000000000000000000000000000005
:100BF00000000000000000000000000000000000F5
:100C00000B0000000000000000000000000000F4E5
:100C100001000B00000000000000000000000000C8
:100C200000C800000318FF050A00000000000000D3
:100C300000000000000000000000000000000000B4
:100C400000000000000000000000000000000000A4
:100C50000000000000000000000000000000000094
:100C60000B0000000000000000000000000000F485
:100C700001000B0000000000000000000000000068
:100C800000C800000417FF050E000000000000006F
:100C90000000000000000000000000000000000054
:100CA0000000000000000000000000000000000044
:100CB0000000000000000000000000000000000034
:100CC0000B0000000000000000000000000000F425
:100CD00001000B0000000000000000000000000008
:100CE00000C800000516FF0502000000000000001B
:100CF00000000000000000000000000000000000F4
:100D000000000000000000000000000000000000E3
:100D100000000000000000000000000000000000D3
:100D20000B0000000000000000000000000000F4C4
:100D300001000B00000000000000000000000000A7
:100D400000C800000615FF050700000000000000B5
:100D50000000000000000000000000000000000093
:100D60000000000000000000000000000000000083
:100D70000000000000000000000000000000000073
:100D80000B0000000000000000000000000000F464
:100D900001000B0000000000000000000000000047
:100DA00000C800000714FF050B0000000000000051
:100DB0000000000000000000000000000000000033
:100DC0000000000000000000000000000000000023
:100DD0000000000000000000000000000000000013
:100DE0000B0000000000000000000000000000F404
:100DF00001000B00000000000000000000000000E7
:100E000000C800000813FF050F00000000000000EC
:100E100000000000000000000000000000000000D2
:100E200000000000000000000000000000000000C2
:100E300000000000000000000000000000000000B2
:100E40000B0000000000000000000000000000F4A3
:100E500001000B0000000000000000000000000086
:100E600000C80000091BFF0503000000000000008F
:100E70000000000000000000000000000000000072
:100E80000000000000000000000000000000000062
:100E90000000000000000000000000000000000052
:100EA0000B0000000000000000000000000000F443
:100EB00001000B0000000000000000000000000026
:100EC00000C800000A00FF05080000000000000044
:100ED0000000000000000000000000000000000012
:100EE0000000000000000000000000000000000002
:100EF00000000000000000000000000000000000F2
:100F00000B0000000000000000000000000000F4E2
:100F100001000B00000000000000000000000000C5
:100F200000C800000B01FF050C00000000000000DD
:100F300000000000000000000000000000000000B1
:100F400000000000000000000000000000000000A1
:100F50000000000000000000000000000000000091
:100F60000B0000000000000000000000000000F482
:100F700001000B0000000000000000000000000065
:100F800000C800000C02FF05100000000000000077
:100F90000000000000000000000000000000000051
:100FA0000000000000000000000000000000000041
:100FB0000000000000000000000000000000000031
:100FC0000B0000000000000000000000000000F422
:100FD00001000B0000000000000000000000000005
:100FE00000C800000D03FF05120000000000000013
:100FF00000000000000000000000000000000000F1
:1010000000000000000000000000000000000000E0
:1010100000000000000000000000000000000000D0
:101020000B0000000000000000000000000000F4C1
:1010300001000B00000000000000000000000000A4
:1010400000C800000E04FF050400000000000000BE
:101050000000000000000000000000000000000090
:101060000000000000000000000000000000000080
:101070000000000000000000000000000000000070
:101080000B0000000000000000000000000000F461
:1010900001000B0000000000000000000000000044
:1010A00000C800000F05FF05090000000000000057
:1010B0000000000000000000000000000000000030
:1010C0000000000000000000000000000000000020
:1010D0000000000000000000000000000000000010
:1010E0000B0000000000000000000000000000F401
:1010F00001000B00000000000000000000000000E4
:1011000000C800001008FF050D00000000000000EE
:1011100000000000000000000000000000000000CF
:1011200000000000000000000000000000000000BF
:1011300000000000000000000000000000000000AF
:101140000B0000000000000000000000000000F4A0
:1011500001000B0000000000000000000000000083
:1011600000C800001109FF05110000000000000088
:10117000000000000000000000000000000000006F
:10118000000000000000000000000000000000005F
:10119000000000000000000000000000000000004F
:1011A0000B0000000000000000000000000000F440
:1011B00001000B0000000000000000000000000023
:1011C00000C80000120AFF05130000000000000024
:1011D000000000000000000000000000000000000F
:1011E00000000000000000000000000000000000FF
:1011F00000000000000000000000000000000000EF
:101200000B0000000000000000000000000000F4DF
:1012100001000B00000000000000000000000000C2
:1012200000C80000130BFF050500000000000000CF
:1012300000000000000000000000000000000000AE
:10124000000000000000000000000000000000009E
:10125000000000000000000000000000000000008E
:101260000B0000000000000000000000000000F47F
:1012700001000B0000000000000000000000000062
:1012800000C80000140CFF0516000000000000005C
:10129000000000000000000000000000000000004E
:1012A000000000000000000000000000000000003E
:1012B000000000000000000000000000000000002E
:1012C0000B0000000000000000000000000000F41F
:1012D00001000B0000000000000000000000000002
:1012E00000C80000150D0E02000000000000000004
:1012F00000000000000000000000000000000000EE
:1013000000000000000000000000000000000000DD
:1013100000000000000000000000000000000000CD
:1013200000000000000000000000000000000000BD
:1013300000000000000000000000000000000000AD
:10134000000000001626FF05140000000000000049
:10135000000000000000000000000000000000008D
:10136000000000000000000000000000000000007D
:10137000000000000000000000000000000000006D
:101380000B0000000000000000000000000000F45E
:1013900001000B0000000000000000000000000041
:1013A00000C800001712FF05150000000000000033
:1013B000000000000000000000000000000000002D
:1013C000000000000000000000000000000000001D
:1013D000000000000000000000000000000000000D
:1013E0000B0000000000000000000000000000F4FE
:1013F00001000B00000000000000000000000000E1
:1014000000C8000018272803A6FF00000000030002
:101410001AF00000000007F00000000016F00000C5
:10142000000004F00000000052F0000000004FF047
:101430000000000051F00000000050F0000000002B
:10144000000000000000000000000000000000009C
:10145000000000000000000000000000000000008C
:10146000000000001C2AFF0C00000000000000002B
:10147000000000000000000000000000000000006C
:10148000000000000000000000000000000000005C
:10149000000000000000000000000000000000004C
:1014A0000B0000000000000000000000000000F43D
:1014B00001000B0000000000000000000000000020
:1014C00000C800001D2BFF0C0E01000000000000F2
:1014D000000000000000000000000000000000000C
:1014E00000000000000000000000000000000000FC
:1014F00000000000000000000000000000000000EC
:101500000B0000000000000000000000000000F4DC
:1015100001000B00000000000000000000000000BF
:1015200000C800001E2CFF0CB400000000000000EA
:1015300000000000000000000000000000000000AB
:10154000000000000000000000000000000000009B
:10155000000000000000000000000000000000008B
:101560000B0000000000000000000000000000F47C
:1015700001000B000000000000000000000000005F
:1015800000C800001F2DFF0C5A00000000000000E2
:10159000000000000000000000000000000000004B
:1015A000000000000000000000000000000000003B
:1015B000000000000000000000000000000000002B
:1015C0000B0000000000000000000000000000F41C
:1015D00001000B00000000000000000000000000FF
:1015E00000C8000042525F005F005F004A4F595F31
:1015F00000504A4F595F0042525F0042505F004224
:10160000525F00011AFF0104F0000000000000001A
:1016100000000000000000000000000000000000CA
:1016200000000000000000000000000000000000BA
:101630000000000000000000000000000000000B9F
:101640000000000000000000000000000000F401A5
:10165000000B00000000000000000000000000007F
:10166000C800000219FF011EF00000000000000089
:10167000000000000000000000000000000000006A
:10168000000000000000000000000000000000005A
:101690000000000000000000000000000000000B3F
:1016A0000000000000000000000000000000F40145
:1016B000000B00000000000000000000000000001F
:1016C000C800000318FF0114F00000000000000033
:1016D000000000000000000000000000000000000A
:1016E00000000000000000000000000000000000FA
:1016F0000000000000000000000000000000000BDF
:101700000000000000000000000000000000F401E4
:10171000000B0000000000000000000000000000BE
:10172000C800000417FF011DF000000000000000C9
:1017300000000000000000000000000000000000A9
:101740000000000000000000000000000000000099
:101750000000000000000000000000000000000B7E
:101760000000000000000000000000000000F40184
:10177000000B00000000000000000000000000005E
:10178000C800000516FF0100000000000000000472
:10179000E000000000000000000000000000000069
:1017A0000000000000000000000000000000000039
:1017B0000000000000000000000000000000000B1E
:1017C0000000000000000000000000000000F40124
:1017D000000B0000000000000000000000000000FE
:1017E000C800000615FF011FF00000000000000007
:1017F00000000000000000000000000000000000E9
:1018000000000000000000000000000000000000D8
:101810000000000000000000000000000000000BBD
:101820000000000000000000000000000000F401C3
:10183000000B00000000000000000000000000009D
:10184000C800000714FF010AF000000000000000BB
:101850000000000000000000000000000000000088
:101860000000000000000000000000000000000078
:101870000000000000000000000000000000000B5D
:101880000000000000000000000000000000F40163
:10189000000B00000000000000000000000000003D
:1018A000C800000813FF011BF0000000000000004A
:1018B0000000000000000000000000000000000028
:1018C0000000000000000000000000000000000018
:1018D0000000000000000000000000000000000BFD
:1018E0000000000000000000000000000000F40103
:1018F000000B0000000000000000000000000000DD
:10190000C80000091BFF01000000000000000002E9
:10191000E0000000000000000000000000000000E7
:1019200000000000000000000000000000000000B7
:101930000000000000000000000000000000000B9C
:101940000000000000000000000000000000F401A2
:10195000000B00000000000000000000000000007C
:10196000C800000A00FF0120F00000000000000095
:101970000000000000000000000000000000000067
:101980000000000000000000000000000000000057
:101990000000000000000000000000000000000B3C
:1019A0000000000000000000000000000000F40142
:1019B000000B00000000000000000000000000001C
:1019C000C800000B01FF0115F0000000000000003E
:1019D0000000000000000000000000000000000007
:1019E00000000000000000000000000000000000F7
:1019F0000000000000000000000000000000000BDC
:101A00000000000000000000000000000000F401E1
:101A1000000B0000000000000000000000000000BB
:101A2000C800000C02FF0106F000000000000000EA
:101A300000000000000000000000000000000000A6
:101A40000000000000000000000000000000000096
:101A50000000000000000000000000000000000B7B
:101A60000000000000000000000000000000F40181
:101A7000000B00000000000000000000000000005B
:101A8000C800000D03FF010CF00000000000000082
:101A90000000000000000000000000000000000046
:101AA0000000000000000000000000000000000036
:101AB0000000000000000000000000000000000B1B
:101AC0000000000000000000000000000000F40121
:101AD000000B0000000000000000000000000000FB
:101AE000C800000E04FF010000000000000000011B
:101AF000E000000000000000000000000000000006
:101B000000000000000000000000000000000000D5
:101B10000000000000000000000000000000000BBA
:101B20000000000000000000000000000000F401C0
:101B3000000B00000000000000000000000000009A
:101B4000C800000F05FF0121F000000000000000A8
:101B50000000000000000000000000000000000085
:101B60000000000000000000000000000000000075
:101B70000000000000000000000000000000000B5A
:101B80000000000000000000000000000000F40160
:101B9000000B00000000000000000000000000003A
:101BA000C800001008FF0108F0000000000000005D
:101BB0000000000000000000000000000000000025
:101BC0000000000000000000000000000000000015
:101BD0000000000000000000000000000000000BFA
:101BE0000000000000000000000000000000F40100
:101BF000000B0000000000000000000000000000DA
:101C0000C800001109FF0119F000000000000000E9
:101C100000000000000000000000000000000000C4
:101C200000000000000000000000000000000000B4
:101C30000000000000000000000000000000000B99
:101C40000000000000000000000000000000F4019F
:101C5000000B000000000000000000000000000079
:101C6000C80000120AFF0110F00000000000000090
:101C70000000000000000000000000000000000064
:101C80000000000000000000000000000000000054
:101C90000000000000000000000000000000000B39
:101CA0000000000000000000000000000000F4013F
:101CB000000B000000000000000000000000000019
:101CC000C80000130BFF0109F00000000000000035
:101CD0000000000000000000000000000000000004
:101CE00000000000000000000000000000000000F4
:101CF0000000000000000000000000000000000BD9
:101D00000000000000000000000000000000F401DE
:101D1000000B0000000000000000000000000000B8
:101D2000C80000140CFF0129F000000000000000B2
:101D300000000000000000000000000000000000A3
:101D40000000000000000000000000000000000093
:101D50000000000000000000000000000000000B78
:101D60000000000000000000000000000000F4017E
:101D7000000B000000000000000000000000000058
:101D8000C80000150D0E0200000000000000000059
:101D90000000000000000000000000000000000043
:101DA0000000000000000000000000000000000033
:101DB0000000000000000000000000000000000023
:101DC0000000000000000000000000000000000013
:101DD0000000000000000000000000000000000003
:101DE0000000001626FF0117F000000000000000B0
:101DF00000000000000000000000000000000000E3
:101E000000000000000000000000000000000000D2
:101E10000000000000000000000000000000000BB7
:101E20000000000000000000000000000000F401BD
:101E3000000B000000000000000000000000000097
:101E4000C800001712FF012EF00000000000000083
:101E50000000000000000000000000000000000082
:101E60000000000000000000000000000000000072
:101E70000000000000000000000000000000000B57
:101E80000000000000000000000000000000F4015D
:101E9000000B000000000000000000000000000037
:101EA000C8000018272804A6FF0000000003001A3D
:101EB000F00000000007F00000000016F000000035
:101EC0000004F00000000052F0000000004FF0009D
:101ED00000000051F00000000050F0000000000081
:101EE00000000000000000000000000000000000F2
:101EF00000000000000000000000000000000000E2
:101F00000000001C2AFF0152F00000000000000049
:101F100000000000000000000000000000000000C1
:101F200000000000000000000000000000000000B1
:101F30000000000000000000000000000000000B96
:101F40000000000000000000000000000000F4019C
:101F5000000B000000000000000000000000000076
:101F6000C800001D2BFF0150F00000000000000021
:101F70000000000000000000000000000000000061
:101F80000000000000000000000000000000000051
:101F90000000000000000000000000000000000B36
:101FA0000000000000000000000000000000F4013C
:101FB000000B000000000000000000000000000016
:101FC000C800001E2CFF0151F000000000000000BE
:101FD0000000000000000000000000000000000001
:101FE00000000000000000000000000000000000F1
:101FF0000000000000000000000000000000000BD6
:102000000000000000000000000000000000F401DB
:10201000000B0000000000000000000000000000B5
:10202000C800001F2DFF014FF0000000000000005D
:1020300000000000000000000000000000000000A0
:102040000000000000000000000000000000000090
:102050000000000000000000000000000000000B75
:102060000000000000000000000000000000F4017B
:10207000000B000000000000000000000000000055
:10208000C80000011AFF0501000000000000000068
:102090000000000000000000000000000000000040
:1020A0000000000000000000000000000000000030
:1020B0000000000000000000000000000000000B15
:1020C0000000000000000000000000000000F4011B
:1020D000000B0000000000000000000000000000F5
:1020E000C800000219FF0506000000000000000003
:1020F00000000000000000000000000000000000E0
:1021000000000000000000000000000000000000CF
:102110000000000000000000000000000000000BB4
:102120000000000000000000000000000000F401BA
:10213000000B000000000000000000000000000094
:10214000C800000318FF050A00000000000000009E
:10215000000000000000000000000000000000007F
:10216000000000000000000000000000000000006F
:102170000000000000000000000000000000000B54
:102180000000000000000000000000000000F4015A
:10219000000B000000000000000000000000000034
:1021A000C800000417FF050E00000000000000003A
:1021B000000000000000000000000000000000001F
:1021C000000000000000000000000000000000000F
:1021D0000000000000000000000000000000000BF4
:1021E0000000000000000000000000000000F401FA
:1021F000000B0000000000000000000000000000D4
:10220000C800000516FF05020000000000000000E5
:1022100000000000000000000000000000000000BE
:1022200000000000000000000000000000000000AE
:102230000000000000000000000000000000000B93
:102240000000000000000000000000000000F40199
:10225000000B000000000000000000000000000073
:10226000C800000615FF0507000000000000000080
:10227000000000000000000000000000000000005E
:10228000000000000000000000000000000000004E
:102290000000000000000000000000000000000B33
:1022A0000000000000000000000000000000F40139
:1022B000000B000000000000000000000000000013
:1022C000C800000714FF050B00000000000000001C
:1022D00000000000000000000000000000000000FE
:1022E00000000000000000000000000000000000EE
:1022F0000000000000000000000000000000000BD3
:102300000000000000000000000000000000F401D8
:10231000000B0000000000000000000000000000B2
:10232000C800000813FF050F0000000000000000B7
:10233000000000000000000000000000000000009D
:10234000000000000000000000000000000000008D
:102350000000000000000000000000000000000B72
:102360000000000000000000000000000000F40178
:10237000000B000000000000000000000000000052
:10238000C80000091BFF050300000000000000005A
:10239000000000000000000000000000000000003D
:1023A000000000000000000000000000000000002D
:1023B0000000000000000000000000000000000B12
:1023C0000000000000000000000000000000F40118
:1023D000000B0000000000000000000000000000F2
:1023E000C800000A00FF050800000000000000000F
:1023F00000000000000000000000000000000000DD
:1024000000000000000000000000000000000000CC
:102410000000000000000000000000000000000BB1
:102420000000000000000000000000000000F401B7
:10243000000B000000000000000000000000000091
:10244000C800000B01FF050C0000000000000000A8
:10245000000000000000000000000000000000007C
:10246000000000000000000000000000000000006C
:102470000000000000000000000000000000000B51
:102480000000000000000000000000000000F40157
:10249000000B000000000000000000000000000031
:1024A000C800000C02FF0510000000000000000042
:1024B000000000000000000000000000000000001C
:1024C000000000000000000000000000000000000C
:1024D0000000000000000000000000000000000BF1
:1024E0000000000000000000000000000000F401F7
:1024F000000B0000000000000000000000000000D1
:10250000C800000D03FF05120000000000000000DD
:1025100000000000000000000000000000000000BB
:1025200000000000000000000000000000000000AB
:102530000000000000000000000000000000000B90
:102540000000000000000000000000000000F40196
:10255000000B000000000000000000000000000070
:10256000C800000E04FF0504000000000000000089
:10257000000000000000000000000000000000005B
:10258000000000000000000000000000000000004B
:102590000000000000000000000000000000000B30
:1025A0000000000000000000000000000000F40136
:1025B000000B000000000000000000000000000010
:1025C000C800000F05FF0509000000000000000022
:1025D00000000000000000000000000000000000FB
:1025E00000000000000000000000000000000000EB
:1025F0000000000000000000000000000000000BD0
:102600000000000000000000000000000000F401D5
:10261000000B0000000000000000000000000000AF
:10262000C800001008FF050D0000000000000000B9
:10263000000000000000000000000000000000009A
:10264000000000000000000000000000000000008A
:102650000000000000000000000000000000000B6F
:102660000000000000000000000000000000F40175
:10267000000B00000000000000000000000000004F
:10268000C800001109FF0511000000000000000053
:10269000000000000000000000000000000000003A
:1026A000000000000000000000000000000000002A
:1026B0000000000000000000000000000000000B0F
:1026C0000000000000000000000000000000F40115
:1026D000000B0000000000000000000000000000EF
:1026E000C80000120AFF05130000000000000000EF
:1026F00000000000000000000000000000000000DA
:1027000000000000000000000000000000000000C9
:102710000000000000000000000000000000000BAE
:102720000000000000000000000000000000F401B4
:10273000000B00000000000000000000000000008E
:10274000C80000130BFF050500000000000000009A
:102750000000000000000000000000000000000079
:102760000000000000000000000000000000000069
:102770000000000000000000000000000000000B4E
:102780000000000000000000000000000000F40154
:10279000000B00000000000000000000000000002E
:1027A000C80000140CFF0516000000000000000027
:1027B0000000000000000000000000000000000019
:1027C0000000000000000000000000000000000009
:1027D0000000000000000000000000000000000BEE
:1027E0000000000000000000000000000000F401F4
:1027F000000B0000000000000000000000000000CE
:10280000C80000150D0E02000000000000000000CE
:1028100000000000000000000000000000000000B8
:1028200000000000000000000000000000000000A8
:102830000000000000000000000000000000000098
:102840000000000000000000000000000000000088
:102850000000000000000000000000000000000078
:102860000000001626FF0514000000000000000014
:102870000000000000000000000000000000000058
:102880000000000000000000000000000000000048
:102890000000000000000000000000000000000B2D
:1028A0000000000000000000000000000000F40133
:1028B000000B00000000000000000000000000000D
:1028C000C800001712FF05150000000000000000FE
:1028D00000000000000000000000000000000000F8
:1028E00000000000000000000000000000000000E8
:1028F0000000000000000000000000000000000BCD
:102900000000000000000000000000000000F401D2
:10291000000B0000000000000000000000000000AC
:10292000C8000018272803A6FF0000000003001AB3
:10293000F00000000007F00000000016F0000000AA
:102940000004F00000000052F0000000004FF00012
:1029500000000051F00000000050F00000000000F6
:102960000000000000000000000000000000000067
:102970000000000000000000000000000000000057
:102980000000001C2AFF0C000000000000000000F6
:102990000000000000000000000000000000000037
:1029A0000000000000000000000000000000000027
:1029B0000000000000000000000000000000000B0C
:1029C0000000000000000000000000000000F40112
:1029D000000B0000000000000000000000000000EC
:1029E000C800001D2BFF0C0E0100000000000000BD
:1029F00000000000000000000000000000000000D7
:102A000000000000000000000000000000000000C6
:102A10000000000000000000000000000000000BAB
:102A20000000000000000000000000000000F401B1
:102A3000000B00000000000000000000000000008B
:102A4000C800001E2CFF0CB40000000000000000B5
:102A50000000000000000000000000000000000076
:102A60000000000000000000000000000000000066
:102A70000000000000000000000000000000000B4B
:102A80000000000000000000000000000000F40151
:102A9000000B00000000000000000000000000002B
:102AA000C800001F2DFF0C5A0000000000000000AD
:102AB0000000000000000000000000000000000016
:102AC0000000000000000000000000000000000006
:102AD0000000000000000000000000000000000BEB
:102AE0000000000000000000000000000000F401F1
:102AF000000B0000000000000000000000000000CB
:102B0000C800004D6573736167652073686F756CED
:102B100064206861766520656E6465642C2062754A
:102B200074206469646E2774210001290229042934
:102B300008291029202940298029012C022C01264E
:102B40000226042608261026202640268026402C11
:102B5000802C012302230423082310232023402355
:102B60008023012002200420082010202020402063
:102B70008020102C202C012F022F042F082F102F23
:102B8000202F402F802F7EFE7EFD7EFB7EF77EEF86
:102B90007EDF7EBF7E7F00000400122E2800010031
:102BA00000342F1200020000762D9C00220100E369
:102BB0002E5100210100B02D0900220200AB2E3859
:102BC00000210200C92D0900220300562E550021C4
:102BD0000300E22D09002204003A2E1C002104000B
:102BE000FB2D0900030000722D04010309045A2D76
:102BF00016020309043C2D1C030309040C2D2E04AA
:102C0000030904D82C3205030904AA2C2C06030955
:102C100004702C3807030904342C3AEE0300002218
:102C20002C1212034D0053004600540031003000B6
:102C3000300004003A0341007A00650072006F0022
:102C40006E0020004B006500790070006100640098
:102C500020002D002000430030006E00660031008F
:102C600067007500720034007400300072000000CC
:102C7000380341007A00650072006F006E0020008A
:102C80004B006500790070006100640020002D0099
:102C90002000440069007200650063007400490070
:102CA0006E0070007500740000002C0341007A0073
:102CB000650072006F006E0020004B006500790017
:102CC00070006100640020002D0020004D006F00A6
:102CD0007500730065000000320341007A00650052
:102CE00072006F006E0020004B00650079007000DC
:102CF0006100640020002D0020004B006500790079
:102D000062006F0061007200640000002E03410049
:102D10007A00650072006F006E0020004B006500B5
:102D2000790070006100640020002D002000580030
:102D300049006E0070007500740000001C03410023
:102D40007A00650072006F006E0020004B00650085
:102D500079007000610064000000160341007A00F1
:102D6000650072006F006E0020004C0054004400AB
:102D700000000403090409029C00050100C0320997
:102D800004000002FF5D01031121000101258114EF
:102D90000000000013010800000705810320000463
:102DA00007050103200008090401000103000004D5
:102DB00009211101000122510007058203100004BE
:102DC0000904020001030102050921110100012289
:102DD0003800070583030800040904030001030009
:102DE0000006092111010001225500070584031086
:102DF0000004090404000203000007092111010076
:102E000001221C0007058503400004070506034056
:102E1000000828000000000104000100000000007C
:102E200000000001585553423130000000000000FE
:102E3000000000000000000000000601FF0A010180
:102E4000A1017508150026FF009540090181029532
:102E50004009029102C005010904A10115002501E4
:102E60007501952005091901292081021500250702
:102E70003500463B0175049501651405010939814A
:102E80004205010901A100150026FF03750A9504FA
:102E900009300931093209358102C0150026FF03C6
:102EA000750A9502093609368102C005010902A199
:102EB00001050919012908150025019508750181E9
:102EC0000205010930093109381581257F750895FA
:102ED000038106050C0A38021581257F75089501C6
:102EE0008106C005010906A101050719E029E715BA
:102EF0000025017501950885018102950E7508155B
:102F000000257F1900297F8100C0050C0901A1015E
:102F10008502750A950419002A9C021500269C0258
:102F20008100050175089503190029B7150026B71A
:102F3000008100C01201000200000020D0163F0FE7
:102F4000890001020001C126C116C106C116C136A1
:102F5000C0362C009E00C600E100A100AD00F100CB
:102F6000D600F40086000000AF00B100000095001C
:102F70000000F30000009F00A000B4009000B30028
:102F800000000000DE000000B000A300A400A500C7
:102F9000B8004403C40044014404D400DA00DD0056
:102FA000F6004803C800480148054C03CC004C011A
:102FB0004C05C700D1005203D20052015204D30085
:102FC000AE00CF005803D8005801DC005C02D700E7
:102FD0009600040384000401040404059A009D0083
:102FE000B60008030802080108050C038C000C0158
:102FF0000C05870091001203920012011204930045
:10300000EE008F001803980018019C001C02970026
:103010001C052C005E002C0560006100620064004D
:103020002C026600670065006E0036002D00370038
:10303000380027001E001F0020002100220023006E
:103040002400250026007300330076002E00770050
:1030500078005F00440045004600470048004900F2
:103060004A004B004C004D004E004F0050005100F4
:1030700052005300540055005600570058005900A4
:103080005A005B005C005D002F00310030002C0115
:103090006D002C030400050006000700080009006D
:1030A0000A000B000C000D000E000F0010001100B4
:1030B0001200130014001500160017001800190064
:1030C0001A001B001C001D006F00710070002C0412
:1030D0002A00EC1FB02C6E39504D37645F654C767A
:1030E000FF1F5E4D6F7611241FBECFEFD0E2DEBF13
:1030F000CDBF12E0A0E0B1E0E6E3F9EF00E00BBFE6
:1031000002C007900D92AE3AB107D9F728E1AEEAB6
:10311000B2E001C01D92A234B207E1F718E1C0E7A6
:10312000D8E104C02197FE010E942B7AC936D1074D
:10313000C9F70E9473660C948F7C0C940000109267
:10314000DC021092DA021092D9021092D802F8949E
:1031500014BEE0E6F0E080818861808380E48083B3
:1031600078940895DC018091D8028823E1F38FB729
:10317000F894E091DA0294E0E99FF0011124E85418
:10318000FD4F408151816281738114964D935D930F
:103190006D937C9317972091DA0230E02F5F3F4FB9
:1031A000277033272093DA029091D80291509093A0
:1031B000D8028FBF14966D917D918D919C91179738
:1031C00008950F931F93CF938C01C091B702C11143
:1031D00006C0C8DFF8016083718382839383F8019E
:1031E000EC0FF11D8081CF5FC370C093B702CF9108
:1031F0001F910F9108950F931F93CF938C01C0914E
:10320000B602C11106C0AEDFF8016083718382830C
:1032100093838C2F90E0880F991F080F191FF801D6
:1032200080819181CF5FC170C093B602CF911F9111
:103230000F9108958F929F92AF92BF92CF92DF929B
:10324000EF92FF92CF93DF93EC016A017B0122E0C2
:10325000C216D104E104F10498F41C821D821E827E
:103260001F826C817D818E819F81DF91CF91FF9044
:10327000EF90DF90CF90BF90AF909F908F90089588
:103280006FEF7FEFCB016C837D838E839F832FEF66
:10329000C216D104E104F10409F010F56FEF70E0FB
:1032A00080E090E0A70196010E94ED7949015A0162
:1032B0008C819D81AE81BF818C159D05AE05BF05BA
:1032C00080F2CE017EDF682F70E090E080E0A50103
:1032D00094010E94ED792C833D834E835F83E8CF78
:1032E000C114D10421E0E206F10410F56FEF7FEF85
:1032F00080E090E0A70196010E94ED7949015A0112
:103300008C819D81AE81BF818C159D05AE05BF0569
:1033100008F4A7CFCE016FDFBC0190E080E0A501EB
:1033200094010E94ED792C833D834E835F83E8CF27
:10333000A70196010E94ED7949015A018C819D8176
:10334000AE81BF818C159D05AE05BF0508F489CF00
:10335000CE0108DFA50194010E94ED792C833D8305
:103360004E835F83EBCF1F920F920FB60F92112403
:103370000BB60F922F933F934F935F936F937F936F
:103380008F939F93AF93BF93CF93DF93EF93FF936D
:10339000909184008091DC02E82FF0E0E352FD4F31
:1033A00090838F5F8093DC02803208F413C1809198
:1033B000DA029091D802890F87708093D902109217
:1033C000DB02CDEDD2E021E2215009F464C0E091AE
:1033D000D90234E0E39FF0011124E854FD4F8081CD
:1033E0009181A281B3813991830F911DA11DB11DDE
:1033F00080839183A283B383E091D90284E0E89F24
:10340000F0011124E854FD4F80819181A281B381A4
:10341000E091D90234E0E39FF0011124E854FD4F1C
:1034200040815181628173813AE0880F991FAA1F00
:10343000BB1F3A95D1F7840F951FA61FB71F808336
:103440009183A283B383E091D90284E0E89FF001E5
:103450001124E854FD4F80819181A281B381E091D4
:10346000D90234E0E39FF0011124E854FD4F40817C
:1034700051816281738136E0B695A79597958795BE
:103480003A95D1F784279527A627B727808391837C
:10349000A283B38399CF80E28093DB02E091D902CB
:1034A00084E0E89FF0011124E854FD4F8081918170
:1034B000A281B381E091D90224E0E29FF0011124BE
:1034C000E854FD4F408151816281738123E0880F70
:1034D000991FAA1FBB1F2A95D1F7840F951FA61FFE
:1034E000B71F80839183A283B383E091D90234E034
:1034F000E39FF0011124E854FD4F80819181A28166
:10350000B381E091D90224E0E29FF0011124E85454
:10351000FD4F40815181628173813BE0B695A79553
:10352000979587953A95D1F784279527A627B727AA
:1035300080839183A283B383E091D90234E0E39F37
:10354000F0011124E854FD4F80819181A281B38163
:10355000E091D90224E0E29FF0011124E854FD4FEC
:103560004081518162817381CFE0880F991FAA1F2A
:10357000BB1FCA95D1F7840F951FA61FB71F808365
:103580009183A283B383A091D902E091D90234E060
:10359000A39FD0011124A854BD4F8D919D910D90F2
:1035A000BC91A02D24E0E29FF0011124E854FD4FCE
:1035B00080839183A283B3831092DC028091D8022E
:1035C0008830E9F48091DA0290E0019687709927BB
:1035D0008093DA02FF91EF91DF91CF91BF91AF918C
:1035E0009F918F917F916F915F914F913F912F911B
:1035F0000F900BBE0F900FBE0F901F9018958091EB
:10360000D8028F5F8093D802E5CF0F931F93DC0120
:1036100014962D933D934D935C93179718961D9296
:103620001D921D921C921B970FB6F89400910818DA
:103630001091091820910A1830910B180FBE0D93A4
:103640001D932D933C931397E62FF0E00E945F6942
:103650001C96EC931C971D966C931F910F910895E7
:10366000FC01848590E008950F931F93DC011D9663
:10367000EC911D97F0E00E945F691C968C911C975D
:103680008E17B1F10FB6F8944091081850910918AF
:1036900060910A1870910B180FBE0D911D912D911C
:1036A0003C911397401B510B620B730B14960D91B9
:1036B0001D912D913C911797401751076207730791
:1036C000B8F00FB6F894409108185091091860911D
:1036D0000A1870910B180FBE4D935D936D937C93F8
:1036E00013971C96EC9381E090E01F910F91089541
:1036F00090E080E0FACFCF92DF92EF92FF920F93AB
:103700001F93CF93DF93EC01AFDF009789F018860A
:1037100019861A861B8681E08E8781E090E0DF9112
:10372000CF911F910F91FF90EF90DF90CF90089570
:10373000088519852A853B85011511052105310567
:1037400041F10FB6F8944091081850910918609112
:103750000A1870910B180FBEC880D980EA80FB80D0
:103760004C195D096E097F094017510762077307FD
:1037700080F00FB6F8948091081890910918A091E4
:103780000A18B0910B180FBE88839983AA83BB8354
:10379000BECF1E86C4CFFC018685882321F081E040
:1037A0009485911101C080E00895FC0186858823ED
:1037B00019F081E09485911180E008951F93CF93D3
:1037C000DF93182FC091FD02D091FE028A3041F4A0
:1037D000E881F9810190F081E02D6DE0CE0109953D
:1037E000E881F9810190F081E02D612FCE010995EA
:1037F00021E030E0019711F430E020E0C901DF91D1
:10380000CF911F910895CF93DF93C091FD02D09186
:10381000FE02E881F9810084F185E02DCE01099551
:10382000892BB9F3E881F9810284F385E02DCE017B
:10383000DF91CF91099408952EEA31E0FC013183A4
:10384000208328EB31E0338322830895DC01ED915E
:10385000FC9136970190F081E02DE80FF91F8EEA78
:1038600091E09183808388EB91E093838283089534
:10387000089526E132E0FC013183208320E232E02A
:10388000378326830895DC01ED91FC9136970190F2
:10389000F081E02DE80FF91F86E192E091838083AB
:1038A00080E292E0978386830895089590E080E017
:1038B000089590E080E0089590E080E0089590E021
:1038C00080E00895DC0150968D919C91DC01ED9192
:1038D000FC910084F185E02D09948F929F92AF9224
:1038E000BF92CF92DF92EF92FF920F931F93CF93ED
:1038F000DF938C0149015A01EB01C12CD12C7601D7
:10390000D80150968D919C91DC01ED91FC9102843F
:10391000F385E02D09958F3F61F0C814D904EA04BE
:10392000FB043CF48993BFEFCB1ADB0AEB0AFB0ADA
:10393000E7CFC701B601DF91CF911F910F91FF90A3
:10394000EF90DF90CF90BF90AF909F908F900895B1
:10395000CF93DF93EC0188899989DC01ED91FC918B
:103960000084F185E02D0995892BA9F3888999892F
:10397000DC01ED91FC910484F585E02DDF91CF9180
:103980000994CF93DF93EC0188899989DC01ED914B
:10399000FC910084F185E02D0995892BA9F3888994
:1039A0009989DC01ED91FC910284F385E02DDF9192
:1039B000CF910994CB0108950C94A2670C94A2674F
:1039C0002EEA31E0FC013183208328EB31E03383A0
:1039D00022830C94A267DC01ED91FC913697208143
:1039E0003181820F931FECCF26E132E0FC0131835D
:1039F000208320E232E0378326830C94A267DC0127
:103A0000ED91FC91369720813181820F931FECCF8D
:103A1000DC01ED91FC910190F081E02D0994FF9281
:103A20000F931F93CF93DF938C01EB016F3F7607CA
:103A3000A9F0F62EEAE06E1305C06DE0F80180896A
:103A40009189E6DF6F2DF80180899189E1DFCE0150
:103A5000DF91CF911F910F91FF900895D0E0C0E0CA
:103A6000F6CF7F928F929F92AF92BF92CF92DF92CA
:103A7000EF92FF920F931F93CF93DF938C01490135
:103A80005A01EB01C12CD12C7601C814D904EA04E7
:103A9000FB04A4F479908AE0781205C06DE0F80187
:103AA00080899189B5DF672DF80180899189B0DF20
:103AB000FFEFCF1ADF0AEF0AFF0AE7CFC501B40113
:103AC000DF91CF911F910F91FF90EF90DF90CF90FA
:103AD000BF90AF909F908F907F9008950F931F930A
:103AE000CF93DF93EC018B018A819B81009711F0CA
:103AF0000E9417671983088363E07CE18EED9BE1E8
:103B00000E94047C9B838A83DF91CF911F910F9148
:103B10000895FC0181E290E09483838315821682EC
:103B2000178286E090E0A0E0B0E080879187A287CE
:103B3000B387148615861686178680EA91E09183EE
:103B4000808380E2808B128A118A748B638B158A42
:103B50000895DB012D913C911197FC013183208365
:103B600012966D917C9126503109D901ED91FC910D
:103B7000E80FF91F7183608381E290E0948383836F
:103B8000548B438B1582158A0895EF92FF920F9301
:103B90001F93CF93DF93EC017B018C010E5F1F4FCE
:103BA000B8014496B6DFA80162EF71E0CE01D1DF23
:103BB0008EEF91E09983888388E092E09D8B8C8BD7
:103BC0001E821D8218861F821A8619861C861B86F5
:103BD0001E861D86188A1F8680EC91E09B838A834F
:103BE000FB8AEA8A80E1898BDF91CF911F910F9147
:103BF000FF90EF900895EF92FF920F931F93CF9352
:103C0000DF93EC017B018A01AC014E5F5F4F6E5F79
:103C10007F4F9FDFD7018D919C9111979983888366
:103C200016962D913C910697DC01ED91FC91EC0FDD
:103C3000FD1F318320831E821D8218861F821A86F3
:103C400019861C861B861E861D86188A1F8680EC98
:103C500091E09B838A831B8B0A8B80E1898BDF91A8
:103C6000CF911F910F91FF90EF9008950F931F93A5
:103C7000CF93DF93EC018B0102964BDF8EEA91E04C
:103C80009983888388EB91E09B838A8381E290E02B
:103C90009E838D831E8B0D8B1F821F8ADF91CF9198
:103CA0001F910F9108952EEA31E06115710519F405
:103CB000FA0120813181FC0131832083672B71F46B
:103CC000FA014281538126503109F9012081318165
:103CD000820F931FFC0151834083089548EB51E00C
:103CE00022E030E0F5CFAB0170E060E0DCCFDB013B
:103CF0002D913C911197FC013183208312966D9197
:103D00007C9126503109D901ED91FC91E80FF91F02
:103D100071836083DC0112961D921D921D921C928C
:103D2000159781E290E094838383548B438B1582B3
:103D3000158A0895EF92FF920F931F93CF93DF930D
:103D4000EC017B018C010A5F1F4FB8014896E1DE50
:103D5000A8016AE372E0CE01CADF86E492E09983AB
:103D6000888380E592E0998F888F1A8619861C8651
:103D70001B861E861D86188A1F861A8A198A1C8A27
:103D80001B8A80EC91E09F838E83FF8AEE8A88E015
:103D90008D8BDF91CF911F910F91FF90EF90089540
:103DA000EF92FF920F931F93CF93DF93EC017B0170
:103DB0008A01AC014A5F5F4F6E5F7F4F98DFD7018A
:103DC0008D919C9111979983888316962D913C91A2
:103DD0000697DC01ED91FC91EC0FFD1F31832083F0
:103DE0001A8619861C861B861E861D86188A1F86C3
:103DF0001A8A198A1C8A1B8A80EC91E09F838E8321
:103E00001F8B0E8B88E08D8BDF91CF911F910F91CF
:103E1000FF90EF9008950F931F93CF93DF93EC01E2
:103E20008B01069676DE86E192E09983888380E2B4
:103E300092E09F838E831A821B821C821D8281E204
:103E400090E09A8789871A8F098F1B861B8EDF91D6
:103E5000CF911F910F91089526E132E06115710510
:103E600019F4FA0120813181FC0131832083672B11
:103E700071F4FA014281538126503109F901208100
:103E80003181820F931FFC0151834083089540E2EA
:103E900052E026E030E0F5CFAB0170E060E0DCCF2F
:103EA00026E432E06115710519F4DA012D913C9197
:103EB000FC013183208361157105A1F4DA011696A6
:103EC000ED91FC9126503109D9012D913C91280F9B
:103ED000391FD901ED93FC93672B49F4BA016E5F4A
:103EE0007F4FDACFE0E5F2E028E130E0F0CF6AE39F
:103EF00072E0F7CF50E040E062E070E0D1CFDC014B
:103F0000ED91FC91369720813181820F931FF2CF82
:103F1000CF93DF93EC01EEDFCE01DF91CF910C94D4
:103F2000A267DC01ED91FC91369720813181820FEF
:103F3000931FEECFAB0170E060E0B2CF2EEF31E027
:103F40006115710519F4DA012D913C91FC01318361
:103F5000208361157105A1F4DA011696ED91FC91AB
:103F600026503109D9012D913C91280F391FD901D3
:103F7000ED93FC93672B49F4BA016E5F7F4FB3CE8C
:103F8000E8E0F2E024E130E0F0CF62EF71E0F7CF5B
:103F900050E040E062E070E0D1CFDC01ED91FC91B7
:103FA000369720813181820F931FF2CFCF93DF9319
:103FB000EC01EEDFCE01DF91CF910C94A267DC0122
:103FC000ED91FC91369720813181820F931FEECFC6
:103FD000AB0170E060E0B2CF60E977E18FE293E09F
:103FE000D4DD60E977E181E093E0A4DE1092000384
:103FF0001092FF0260E977E18DEF92E06FCD81E0F2
:1040000093E078DF8FE293E0C3CF982F84EE890F9F
:10401000843028F081E0963119F080E0089581E045
:10402000089586518A3030F4E82FF0E0EC5AFD4FC5
:104030008081089580E00895CF93DF93C82FD62F15
:10404000E4DF882339F08C2FECDFE82FF0E0E75A2B
:10405000FC4FD083DF91CF910895CF93DF93D82F7A
:10406000D4DFC82F882399F08D2FDBDFE9E5F3E05B
:1040700090E02191222339F0C1E08913C0E08C2F18
:10408000DF91CF9108959F5F953099F7F8CFC1E008
:10409000F6CFCF93DF931F92CDB7DEB720910518EF
:1040A00030910618CE010196821B930B0F90DF9181
:1040B000CF910895EF92FF920F931F93CF93DF93C9
:1040C00000D000D000D0CDB7DEB77C018B01E1DF9E
:1040D000E982FA828B839C830D831E83E0917501B4
:1040E000F0917601E255F04F808181110DC000E022
:1040F0002FEF46E050E0BE016F5F7F4F8091770168
:10410000909178010E94DC6326960FB6F894DEBF8A
:104110000FBECDBFDF91CF911F910F91FF90EF9018
:10412000089581E190E008958FE090E00895FC010A
:1041300086810895FC0185810895FC0181E0248138
:104140009581291380E00895FC0183810895FC0185
:104150008481813019F49581913009F080E00895CF
:104160009BEE980F933010F48250089597EE980FBD
:10417000973010F486500895843210F08A500895D4
:1041800081500895E0917501F0917601ED55F04F61
:104190002081222319F0FC0180810895E0917101B2
:1041A000F091720181A10895E0917501F09176017D
:1041B000ED55F04F2081222321F0FC018181928175
:1041C0000895E0917101F091720183A194A1089585
:1041D000E0917501F0917601ED55F04F2081222399
:1041E00021F0FC01838194810895E0917101F091A7
:1041F000720187A190A50895E0917501F091760173
:10420000ED55F04F2081222321F0FC01858196811C
:104210000895E0917101F091720185A196A1089530
:1042200026E0629FB0011124E0917501F0917601C2
:10423000ED55F04F2081222329F0675F7F4F860FD5
:10424000971F0895675D7F4F809171019091720172
:10425000F6CF26E0629FB0011124E0917501F09144
:104260007601ED55F04F2081222329F06F5D7F4FBD
:10427000860F971F08956F5B7F4F8091710190911A
:104280007201F6CFFC01BC016857704F2CE730E09B
:104290008085A901853111F08831A1F44D5F5F4F10
:1042A0009A012F5F3F4F8531A1F08831C9F4938582
:1042B000953121F050F49350923058F49A01275CD4
:1042C0003F4F07C04E5F5F4FEBCF9432B9F3973249
:1042D000A9F3E257FF4FE617F707D1F6C901089592
:1042E0009A012C5C3F4FF5CF0F931F930FB6F894B4
:1042F000009108181091091820910A1830910B1894
:104300000FBE041B150B260B370BFC01008311831A
:10431000228333831F910F910895CF93DF93EC0194
:1043200040E050E0BA0184589F4FDEDFC558DF4FB0
:1043300081E08883DF91CF910895613089F0623008
:1043400021F1FC0120852F3090F52D30E0F426304E
:10435000D1F02B30C1F0611124C0FC018789089590
:10436000FC01EF5BFF4F20812F3058F42D3058F4C3
:10437000263049F02B3039F08E5A9F4FFC01808156
:1043800008952332C9F780E00895FC01ED5AFF4FEC
:1043900020812F3048F42D30B0F72630A1F32B3098
:1043A00091F38C599F4FEACF2332D9F7ECCF2332C8
:1043B00091F6E9CFEF92FF921F93CF93DF937C01A9
:1043C00024E7E20EF11CF7011081EC01112309F141
:1043D00061E0B3DF811111C0F7011082F397AE01E4
:1043E000465B5F4FBE016E5B7F4F2081CE010E9416
:1043F000D942C558DF4F188205C0CA58DF4F91E037
:104400009883182F812FDF91CF911F91FF90EF900C
:104410000895CA58DF4FEFCF0F931F93CF93DF93C9
:10442000EA01882321F160E0CA0187DF2885AE0117
:104430004F5E5F4FBE01675F7F4F8E010D581F4F6C
:10444000882371F0F8018081882351F0CE010E9409
:10445000D942F8011082DF91CF911F910F910895F9
:10446000CE010E94754181E0F8018083F4CF66237C
:1044700091F360E0CA0161DF8111EDCFAE014F5EC3
:104480005F4FBE01675F7F4F2885CE010E94D942F2
:10449000CD58DF4F1882DFCFFC01E958FF4F208154
:1044A000222311F010820895FC01E858FF4F21E00B
:1044B0002083AC0160E081E0AFCFCF92DF92EF923A
:1044C000FF920F931F93CF93DF93EC018C0106585B
:1044D0001F4FF801208180589F4F211110C040E0EC
:1044E00050E0BA0101DF81E0F8018083DF91CF91D4
:1044F0001F910F91FF90EF90DF90CF9008950FB62E
:10450000F894C0900818D0900918E0900A18F0901C
:104510000B180FBEFC0180819181A281B381C81A62
:10452000D90AEA0AFB0ACE010E941245B0E0A0E0D7
:10453000C816D906EA06FB06C8F68E010B581F4FAF
:10454000F8018081882329F062E0CE01F6DE811136
:1045500029C0FE01ED58FF4F808181113DC061E00F
:10456000CE01EBDE882331F0FE01EC58FF4F808155
:104570008111BCCF81E0F8018083FE01ED5AFF4F2D
:10458000AE01445A5F4FBE016C5A7F4F2081CE016D
:10459000DF91CF911F910F91FF90EF90DF90CF901F
:1045A0000C947541F8011082FE01E958FF4F81E03B
:1045B0008083B497AE01445A5F4FBE016C5A7F4F5F
:1045C0002081CE01DF91CF911F910F91FF90EF904D
:1045D000DF90CF900C94D94260E0CE01AEDE88230C
:1045E00009F4BDCF83CFCF93DF93EC0140E050E0DF
:1045F000BA0180589F4F78DE62E0CE019EDE8111C5
:104600001BC0FE01E658FF4F80818823A9F0DE0120
:10461000AB58BF4F8C91882379F01C921082B797CA
:10462000AE01445A5F4FBE016C5A7F4F2081CE01CC
:10463000DF91CF910C94D942DF91CF91089521E081
:10464000FC0182818F3009F020E0822F089521E063
:10465000FC018281813209F020E0822F089521E05F
:10466000FC018281833209F020E0822F08950F93AC
:10467000CF93DF931F92CDB7DEB7E0917501F09134
:104680007601DC0117962C91E155F04F2130B1F401
:104690002083FC018781898300E02FE041E050E026
:1046A000BE016F5F7F4F80917701909178010E94EA
:1046B000DC630F90DF91CF910F9108951082E9CFC5
:1046C0000F93CF93DF931F92CDB7DEB7E0917501C3
:1046D000F0917601EB55F04F8081898300E021E273
:1046E00041E050E0BE016F5F7F4F80917701909174
:1046F00078010E94DC630F90DF91CF910F910895B4
:104700006F927F928F929F92AF92BF92CF92DF92E1
:10471000EF92FF920F931F93CF93DF93FC01A1843D
:104720008285BA2CA82E03858485102F082F8585B5
:104730008684982EC7858089DC2FC82F818962885E
:10474000782EE3888489FE2CE82EC5888689DC2CA7
:10475000C82E67818085762F682FE0917501F091D2
:104760007601EA55F04F808191810E943D5BE09196
:104770007501F0917601EA55F04FB5018081918184
:104780000E945A5BE0917501F0917601EA55F04F75
:10479000B601808191810E94945BE0917501F09156
:1047A0007601EA55F04FB701808191810E94775BD5
:1047B000E0917501F0917601EA55F04FB8018081E2
:1047C00091810E94C45DE0917501F0917601EA55F6
:1047D000F04FBE01808191810E94E15DE091750101
:1047E000F0917601EA55F04FB401808191810E94E9
:1047F000FE5DE0917501F0917601EA55F04FB3014D
:1048000080819181DF91CF911F910F91FF90EF9067
:10481000DF90CF90BF90AF909F908F907F906F90E0
:104820000C941B5EFC01928186EF890F823028F088
:1048300081E09D3219F080E0089581E0089521E043
:10484000FC018281863209F020E0822F0895EF92E8
:10485000FF920F931F93CF93DF93CDB7DEB7E99706
:104860000FB6F894DEBF0FBECDBF8C0166DC8111A0
:104870001EC01982E0907701F0907801C80164DCD5
:10488000082F26E250E040E0BE016F5F7F4FC70176
:104890000E94DC63E9960FB6F894DEBF0FBECDBF71
:1048A000DF91CF911F910F91FF90EF900895F80144
:1048B00060858781898381859285892798278927C3
:1048C0009E838D8383859485892798278927988758
:1048D0008F83858596858927982789279C838B8355
:1048E00080898A839E01275F3F4F9AE086E0890F87
:1048F000F901D801A90FB11D17964C911797189679
:104900005C91452754274527419351939E5F981307
:10491000F0CF2A5F3F4F982F823241F79E012F5DE3
:104920003F4F96E0980FF901D801A80FB11D1796D7
:104930004C91179718965C9145275427452741932A
:1049400051938E5F8913F0CF2A5F3F4F8A3349F727
:10495000613031F480917501909176010E943D5053
:10496000BE016F5F7F4F80917101909172010E9433
:104970002E5D19AEE0907701F0907801C801E4DB7C
:10498000082F26E250E040E0BE01675C7F4F7FCFFA
:104990008F929F92AF92BF92CF92DF92EF92FF924F
:1049A0000F931F93CF93DF93CDB7DEB7C056D109D6
:1049B0000FB6F894DEBF0FBECDBF8C01FC01E780BF
:1049C000F084D2848F2D0E94B350F0E68F9FB00107
:1049D00011246C517F4F40E650E0CE0101960E94B9
:1049E000E97B8F2D0E94C350882369F028E1F216DD
:1049F00051F0AE014F5F5F4F6E2D8091710190912C
:104A000072010E94345C8F2D0E94C350882311F0E4
:104A10003BE0D312DC82F8018585B6844785908916
:104A2000542F492F21899289322F292F9C8195312A
:104A300031F008F097C09350923008F09BC0982F47
:104A40008B2DF80173896489A789B08DAB27BA27AC
:104A5000AB27A18CD28CBA2CAD2CD58806891D2D04
:104A60001E830D83B887AF83BC86AB867A87698740
:104A700068EE6F0D643088F4E1E0F0E0EC0FFD1FAC
:104A800066E0F69EE00DF11D1124E059F1099587CD
:104A9000848757874687318B208B60EE6F0D64309B
:104AA00088F4E1E0F0E0EC0FFD1F66E0F69EE00D1B
:104AB000F11D1124E05CF10995A384A357A346A33B
:104AC00031A720A78F2D0E94C350882311F088E1C1
:104AD000F82E8091750190917601FC01ED55F04F13
:104AE0002081222301F1FC0124812E111CC02DB74D
:104AF0003EB7295331090FB6F8943EBF0FBE2DBF04
:104B0000ADB7BEB7119629E3FE01349601900D9220
:104B10002A95E1F76F2D02960E94435F0FB6F89435
:104B2000DEBF0FBECDBF9E012C5F3F4F4F2D6E2DC0
:104B300080917101909172010E941858C05ADF4F04
:104B40000FB6F894DEBF0FBECDBFDF91CF911F919E
:104B50000F91FF90EF90DF90CF90BF90AF909F901C
:104B60008F900895943209F46ACF973209F467CF91
:104B7000933249F1F801C3889489DC2CC92EA589A8
:104B80009689BA2FA92F8788908D982C892E618DB0
:104B9000928D762F692FAA24A394938D913009F0DA
:104BA000A12C982F8B2D9E838D8358874F833A8716
:104BB0002987DC86CB86BE87AD87988A8F867A8BDD
:104BC000698BAB8A7FCF8D83BE8258874F833A87AC
:104BD000298778CF8F929F92AF92BF92CF92DF9228
:104BE000EF92FF920F931F93CF93DF93CDB7DEB772
:104BF000C056D1090FB6F894DEBF0FBECDBF8C01F1
:104C0000DC011796EC9017971896FC9018971A9657
:104C1000DC908F2D0E94B350B0E68B9FB001112421
:104C20006C517F4F40E650E0CE0101960E94E97B37
:104C30008D2D0E94A743811168C089818983DDAED3
:104C4000F801938984897585668547852089542F65
:104C5000422F31892289F3E2DF1259C07EAF6FAF54
:104C600022965FAF4EAF229724963FAF2EAF249788
:104C700026969FAF8EAF2697809175019091760111
:104C8000FC01ED55F04F2081222301F1DC01149647
:104C90002C912E111BC0EDB7FEB772970FB6F8948A
:104CA000FEBF0FBEEDBFADB7BEB7119622E1FE014C
:104CB000FD9601900D922A95E1F76F2D02960E94C4
:104CC000895F0FB6F894DEBF0FBECDBF9E01235C97
:104CD0003F4F4F2D6E2D80917101909172010E9476
:104CE000F358C05ADF4F0FB6F894DEBF0FBECDBFEA
:104CF000DF91CF911F910F91FF90EF90DF90CF90B8
:104D0000BF90AF909F908F90089588E197CFD80182
:104D10005596CC9055975696EC915697DC2CCE2E06
:104D20005796AC91F801B08DAB27BA27AB27818C91
:104D3000B28C982C8B2CBB24B394A38CAB10B12CCD
:104D4000F801A48C158D012F1A2D7FAF6EAF22961E
:104D50005FAF4EAF229724963FAF2EAF2497269693
:104D60009FAF8EAF26972896DFAECEAE28972A96B5
:104D7000BFAFAEAF2A972C969FAE8EAE2C972E96D5
:104D80001FAF0EAF2E972F96BFAE2F9775CF8F9276
:104D90009F92AF92BF92CF92DF92EF92FF920F93CA
:104DA0001F93CF93DF93CDB7DEB7C056D1090FB6AF
:104DB000F894DEBF0FBECDBF8C01DC011796EC90DE
:104DC00017971896FC9018971A96DC908F2D0E94D2
:104DD000B350B0E68B9FB00111246C517F4F40E679
:104DE00050E0CE0101960E94E97B8D2D0E94A743E1
:104DF00081116FC0898189836096DFAE6097F80169
:104E0000938984897585668547852089542F422F2B
:104E100031892289F3E2DF125EC061967FAF61972C
:104E200062966FAF629764965FAF4EAF6497669677
:104E30003FAF2EAF669768969FAF8EAF6897809111
:104E4000750190917601FC01ED55F04F20812223F0
:104E500009F1DC0114962C912E111CC0EDB7FEB7A0
:104E600072970FB6F894FEBF0FBEEDBFADB7BEB7D9
:104E7000119622E1FE01E15BFF4F01900D922A9510
:104E8000E1F76F2D02960E94D05F0FB6F894DEBF57
:104E90000FBECDBF9E01215B3F4F4F2D6E2D8091E8
:104EA0007101909172010E943059C05ADF4F0FB6C4
:104EB000F894DEBF0FBECDBFDF91CF911F910F9150
:104EC000FF90EF90DF90CF90BF90AF909F908F902A
:104ED000089588E190CFD8015596CC905597569675
:104EE000EC915697DC2CCE2E5796AC91F801B08DF4
:104EF000AB27BA27AB27818CB28C982C8B2CBB2488
:104F0000B394A38CAB10B12CF801A48C158D012F98
:104F10001A2D62967FAF6EAF629764965FAF4EAF09
:104F2000649766963FAF2EAF669768969FAF8EAF39
:104F300068976A96DFAECEAE6A976C96BFAFAEAF9B
:104F40006C976E969FAE8EAE6E97A0961FAF0EAF0B
:104F5000A097A196BFAEA19772CF6F927F928F92CA
:104F60009F92AF92BF92CF92DF92EF92FF920F93F8
:104F70001F93CF93DF93CDB7DEB7C056D1090FB6DD
:104F8000F894DEBF0FBECDBF8C01D7D8882309F4BB
:104F9000E1C0D8011796FC9017971896EC908E2DCB
:104FA0000E94B350F801D384F0E68F9FB001112422
:104FB0006C517F4F40E650E0CE0101960E94E97BA4
:104FC00068E1862EE8100AC0AE014F5F5F4F6F2D7B
:104FD00080917101909172010E94345CDC82D80151
:104FE0001C964C911C971D96BC901D971E962C915B
:104FF0001E971F968C911F97322F282F50969C91A9
:10500000509751968C91B5E1DB1641F0BD150CF42B
:10501000B7C05DEF5D0D523008F0BEC0542F4B2D70
:105020005A87498738872F839E838D83D80152966C
:105030008C91529753969C918927982789279C8712
:105040008B87AE014F5F5F4FBA018DE090E0FC01AE
:10505000E00FF11F30E020E06B01C20ED31EA781EC
:10506000B085BA2EAB2ED6011D96BC92AE921C977F
:105070002E5F3F4F32962630310571F706966A5FF4
:105080007F4F8532910519F7F801E80FF91F30E0DD
:1050900020E0DA01A20FB31F6781708567277627AA
:1050A000672795967C936E9394972E5F3F4F329629
:1050B0002630310571F706964A5F5F4F8D339105B3
:1050C00019F78091750190917601FC01ED55F04F33
:1050D0002081222309F45AC1FC012481F2121CC050
:1050E0001F922DB73EB7205631090FB6F8943EBF38
:1050F0000FBE2DBFADB7BEB7119620E6FE013196AB
:1051000001900D922A95E1F702960E94925E0FB6E9
:10511000F894DEBF0FBECDBF2091750130917601AE
:10512000ADB7BEB7A056B1090FB6F894BEBF0FBE5B
:10513000ADBF119690E6FE01319601900D929A95C1
:10514000E1F76F2DC9010E945C4E0FB6F894DEBFE7
:105150000FBECDBFC05ADF4F0FB6F894DEBF0FBEF3
:10516000CDBFDF91CF911F910F91FF90EF90DF9016
:10517000CF90BF90AF909F908F907F906F90089549
:10518000E4E2DE1609F44ACFF7E2DF1609F446CF6F
:1051900053E2852ED81461F1F801C2885389DC2CC2
:1051A000C52EA4895589BA2FA52F86885789982C92
:1051B000852E608D518D762F652FEE24E394528DD0
:1051C000513009F0E12C542F4B2D5E834D833887ED
:1051D0002F839A878987DC86CB86BE87AD87988A9E
:1051E0008F867A8B698BEB8A84E1C82ED12C09C01B
:1051F0004D83BE8238872F839A8789879BE0C92E8B
:10520000D12CF801EC0DFD1DE780EDAE6084C601E8
:1052100009969801280F391FD9017C906285238552
:10522000762F622F44852585542F422F368527857A
:10523000B3E2EB1237C06EAE7FAE22967FAF6EAF99
:10524000229724965FAF4EAF249726963FAF2EAF9E
:105250002697F801E80FF91FA7816096AFAF609716
:105260006085718542858385542F482F24858585E7
:10527000322F282F96858785A33209F04EC061967C
:105280006FAF619762967FAF629764965FAF4EAFE4
:10529000649766963FAF2EAF669768969FAF8EAFC6
:1052A00068970FCFA0888189BA2CA82EC601429694
:1052B000D801A80FB91FCC90A389DC2CCA2EB489C1
:1052C000A589EE24E39496889E10E12C9788808C23
:1052D0006724762467247FAE6EAE22967FAF6EAFD2
:1052E000229724965FAF4EAF249726963FAF2EAFFE
:1052F00026972896BFAEAEAE28972A96DFAECEAEE2
:105300002A972C96BFAFAEAF2C972E969FAE8EAE3F
:105310002E972F96EFAE2F979CCFC088A189DC2CBB
:10532000CA2E0289A389102F0A2FB489A589BB240C
:10533000B394E688EB10B12CE788E08DFE2D67274B
:105340007627672762967FAF6EAF629764965FAFEE
:105350004EAF649766963FAF2EAF669768969FAF45
:105360008EAF68976A96DFAECEAE6A976C961FAF27
:105370000EAF6C976E96BFAFAEAF6E97A096FFAFB5
:10538000EEAFA097A196BFAEA1979BCE2DB73EB72B
:10539000205631090FB6F8943EBF0FBE2DBFADB7F2
:1053A000BEB7119620E6FE01319601900D922A9526
:1053B000E1F76F2DC8CEEF92FF920F931F93CF931B
:1053C000DF93CDB7DEB7C056D1090FB6F894DEBF74
:1053D0000FBECDBF8C010E949D20882309F4CFC051
:1053E000F801E780F08488E10E94B350F0E68F9FD7
:1053F000B00111246C517F4F40E650E0CE01019680
:105400000E94E97BAE014F5F5F4F6E2D809171016D
:10541000909172010E94345CFC8225E1F21641F009
:105420002F150CF459C08DEF8F0D823008F05CC041
:10543000F801818592858927982789279A87898706
:105440008385948589279827892798878F838585E1
:1054500096858927982789279E838D8387859089BC
:105460008927982789279C878B879E01235F3F4F39
:105470009AE086E0890FF901D801A90FB11D1796AE
:105480004C91179718965C914527542745274193CF
:1054900051939E5F9813F0CF2A5F3F4F982F82322F
:1054A00041F79E012B5D3F4F96E0980FF901D8011F
:1054B000A80FB11D17964C91179718965C91452728
:1054C00054274527419351938E5F8913F0CF2A5F6C
:1054D0003F4F8A3349F708C034E2F31609F4A8CFE6
:1054E00087E2F81609F4A4CF8091750190917601B6
:1054F000FC01ED55F04F2081222309F44EC0FC0140
:105500002481E2121CC01F922DB73EB720563109EC
:105510000FB6F8943EBF0FBE2DBFADB7BEB7119604
:1055200020E6FE01319601900D922A95E1F7029650
:105530000E94925E0FB6F894DEBF0FBECDBF2091E1
:10554000750130917601EDB7FEB7E056F1090FB65F
:10555000F894FEBF0FBEEDBFADB7BEB7119690E693
:10556000FE01319601900D929A95E1F76E2DC901D9
:105570000E945C4E0FB6F894DEBF0FBECDBFC05A7E
:10558000DF4F0FB6F894DEBF0FBECDBFDF91CF91D6
:105590001F910F91FF90EF900895EDB7FEB7E05681
:1055A000F1090FB6F894FEBF0FBEEDBFADB7BEB7A1
:1055B000119620E6FE01319601900D922A95E1F7B1
:1055C0006E2DD6CFEF92FF920F931F93CF93DF9361
:1055D0001F92CDB7DEB78C01FC0182818A3049F57C
:1055E0008185813001F1823009F1811102C0C80149
:1055F000CFD91982E0907701F0907801C8010E941C
:10560000A420082F2AE050E040E0BE016F5F7F4FEA
:10561000C7010E94DC630F90DF91CF911F910F9122
:10562000FF90EF900895C801D5DAE3CFC801AFDB52
:10563000E0CF8B3069F4C80190DC1982E0907701EB
:10564000F0907801C8010E94A420082F2BE0DBCF46
:10565000C801B1DE1982E0907701F0907801C801AD
:105660000E94A420082F2DE2CECF21E0FC018281F0
:10567000823009F020E0822F0895FC0182818E3271
:1056800041F0843021F410925E0381E0089580E0BF
:10569000089581E080935E0308955F926F927F92F8
:1056A0008F929F92AF92BF92CF92DF92EF92FF9232
:1056B0000F931F93CF93DF93CDB7DEB7A4970FB6A9
:1056C000F894DEBF0FBECDBFE0917501F091760179
:1056D000EA55F04F808191810E94D05B582E692E4F
:1056E000E0917501F0917601EA55F04F808191814A
:1056F0000E94D45B782E892EE0917501F09176019D
:10570000EA55F04F808191810E94D85BB82EC92E56
:10571000E0917501F0917601EA55F04F8081918119
:105720000E94DC5B982EA92EE0917501F091760124
:10573000EA55F04F808191810E94CA52182FE09162
:105740007501F0917601EA55F04F808191810E94B8
:105750003A5DD82E092FE0917501F0917601EA5556
:10576000F04FBE01635E7F4F808191810E94AA5DF0
:10577000112359F0E0917501F0917601EA55F04F4F
:1057800060E0808191810E94CD52CE0101967C0122
:105790008CE1F70111928A95E9F781E08E838F837E
:1057A00082E0888780917501909176010E947C4EFD
:1057B000898380917501909176010E948A4E8A8337
:1057C00080917501909176010E94B94E8B838091F2
:1057D0007501909176010E94984E8C83809175019D
:1057E00090917601FC01EB55F04F20812D83598675
:1057F0006A867B868C869D86AE86BF86C88A198B14
:10580000DA8A0B8B3D8D2E8D3C8B2D8B3F8D28A105
:105810003E8B2F8B39A12AA1388F298F3BA12CA138
:105820003A8F2B8F0E94A64E8C8F00E022E04CE135
:1058300050E0B70180917701909178010E94DC637C
:10584000A4960FB6F894DEBF0FBECDBFDF91CF9107
:105850001F910F91FF90EF90DF90CF90BF90AF908E
:105860009F908F907F906F905F90089580915E03DE
:10587000811102C084E008958EE20895CF92EF92E4
:105880000F931F93CF93DF938091750190917601D1
:10589000FC01EE55F04F1081FC012481222321F000
:1058A00070E060E00E94195062E080917301909175
:1058B00074010E94693460917501709176016E5F88
:1058C0007F4F40E080917301909174010E940335F5
:1058D000EC01892B79F0CADF4FA950E0C12CE9AC6B
:1058E00008AD282FBE0180917701909178010E9428
:1058F0000464E1CF61E070E08091750190917601E0
:105900000E94195060917501709176016E5F7F4F12
:1059100041E080917301909174010E940335EC0184
:10592000892B79F0A3DF4FA950E0C12CE9AC08AD79
:10593000282FBE0180917701909178010E94046424
:10594000E1CF612F110F770B809175019091760156
:10595000DF91CF911F910F91EF90CF900C94195040
:10596000EFE5F3E08091300190913101A091320197
:10597000B091330180839183A283B3838091180116
:1059800090911901A0911A01B0911B018483958314
:10599000A683B78380911C0190911D01A0911E01E7
:1059A000B0911F0180879187A287B38780913401CE
:1059B00090913501A0913601B09137018487958788
:1059C000A687B78780912C0190912D01A0912E017F
:1059D000B0912F01808B918BA28BB38B80914C0166
:1059E00090914D01A0914E01B0914F01848B958B08
:1059F000A68BB78B8091440190914501A0914601FF
:105A0000B0914701808F918FA28FB38F8091140145
:105A100090911501A0911601B0911701848F958F77
:105A2000A68FB78F8091280190912901A0912A011A
:105A3000B0912B0180A391A3A2A3B3A380913C01B9
:105A400090913D01A0913E01B0913F0184A395A3A7
:105A5000A6A3B7A380910C0190910D01A0910E0116
:105A6000B0910F0180A791A7A2A7B3A78091380199
:105A700090913901A0913A01B0913B0184A795A77B
:105A8000A6A7B7A78091240190912501A091260196
:105A9000B091270180AB91ABA2ABB3AB8091580121
:105AA00090915901A0915A01B0915B0184AB95ABE3
:105AB000A6ABB7AB8091080190910901A0910A01B2
:105AC000B0910B0180AF91AFA2AFB3AF809148010D
:105AD00090914901A0914A01B0914B0184AF95AFDB
